:020000009D2839
:10000800803120007F08DB00911E0B280C288828EF
:1000180023009D1C1028112814281D121D161428B1
:1000280019082000DA003E08383E860087015A0881
:1000380081003E08383E86008701010823009A00A7
:100048002000DC01DD012D280130DC070030DD3D1A
:100058002D285D08803AFF0083307F02031D362873
:10006800E8305C02031839283A2841282000111E7C
:100078003E283F28282841284128200038083F3AB0
:10008800031D472848284C2880319F20803151285B
:1000980001302000BE070030BF3D023020003E0680
:1000A8003F04031D5828592863283808533A031970
:1000B8005E285F28632880319F20803163280330C1
:1000C80020003E063F04031D6A286B287B28380859
:1000D800533A031D702871287B283908463A031DB6
:1000E800762877287B2880319F2080317B28043030
:1000F80020003E063F04031D82288328882880317B
:100108009F208031882888280B1D8B288C289928C7
:100118002000631C9028912899280630950001300A
:10012800BC070030BD3D0B11992820005B08FF007B
:1001380009008801A32F8B172000BE01BF013808D2
:100148003F3A031DA828A928572C0230FC007C0838
:10015800D3000A30FC007C08A0000A30FC007C08B0
:10016800A1000D30FC007C08A2005330FC007C0884
:10017800A3005730FC007C08A4003130FC007C0848
:10018800A5002E30FC007C08A6003030FC007C085E
:10019800A7002030FC007C08A8004A30FC007C083E
:1001A800A9004B30FC007C08AA008531D725803196
:1001B8000B30FC007C082000A0000A30FC007C0802
:1001C800A1000D30FC007C08A2004330FC007C0834
:1001D800A3006F30FC007C08A4006D30FC007C0894
:1001E800A5006D30FC007C08A6006130FC007C088E
:1001F800A7006E30FC007C08A8006430FC007C0876
:10020800A9007330FC007C08AA003A30FC007C0886
:10021800AB008531D72580310D30FC007C082000EB
:10022800A0005530FC007C08A1005330FC007C087D
:10023800A2004530FC007C08A3002030FC007C08AC
:10024800A4004330FC007C08A5004130FC007C0879
:10025800A6005030FC007C08A7005330FC007C0846
:10026800A8002030FC007C08A9004C30FC007C0869
:10027800AA004F30FC007C08AB004330FC007C082F
:10028800AC004B30FC007C08AD008531D7258031AF
:100298000D30FC007C082000A0000A30FC007C081F
:1002A800A1000D30FC007C08A2004D30FC007C0849
:1002B800A3004C30FC007C08A4003D30FC007C0806
:1002C800A5005330FC007C08A6006530FC007C08C3
:1002D800A7007430FC007C08A8002030FC007C08D3
:1002E800A9004430FC007C08AA006130FC007C08AE
:1002F800AB007430FC007C08AC006130FC007C086A
:10030800AD008531D72580310F30FC007C082000F6
:10031800A0004D30FC007C08A1003D30FC007C08AA
:10032800A2004D30FC007C08A3005330FC007C0880
:10033800A4002030FC007C08A5004E30FC007C089E
:10034800A6006930FC007C08A7006230FC007C082D
:10035800A8006230FC007C08A9006C30FC007C0816
:10036800AA006530FC007C08AB002D30FC007C083E
:10037800AC004830FC007C08AD004530FC007C082F
:10038800AE005830FC007C08AF008531D72580319D
:100398000F30FC007C082000A0004C30FC007C08DA
:1003A800A1003D30FC007C08A2004C30FC007C0819
:1003B800A3005330FC007C08A4002030FC007C081B
:1003C800A5004E30FC007C08A6006930FC007C08C3
:1003D800A7006230FC007C08A8006230FC007C08A2
:1003E800A9006C30FC007C08AA006530FC007C0881
:1003F800AB002D30FC007C08AC004830FC007C08C9
:10040800AD004530FC007C08AE005830FC007C088C
:10041800AF008531D72580310F30FC007C082000E3
:10042800A0000A30FC007C08A1000D30FC007C080C
:10043800A2005330FC007C08A3005630FC007C0866
:10044800A4005830FC007C08A5005830FC007C084B
:10045800A6003D30FC007C08A7005330FC007C0857
:10046800A8006530FC007C08A9007430FC007C08FA
:10047800AA002030FC007C08AB005630FC007C0849
:10048800AC006F30FC007C08AD007530FC007C08C7
:10049800AE007430FC007C08AF008531D725803170
:1004A8000D30FC007C082000A0005830FC007C08BF
:1004B800A1005830FC007C08A2003A30FC007C08FF
:1004C800A3004430FC007C08A4006530FC007C08D4
:1004D800A5006330FC007C08A6002830FC007C08DE
:1004E800A7003030FC007C08A8003030FC007C08F5
:1004F800A9002D30FC007C08AA003330FC007C08E1
:10050800AB003130FC007C08AC002930FC007C08D2
:10051800AD008531D72580310E30FC007C082000E5
:10052800A0003330FC007C08A1003130FC007C08BE
:10053800A2002830FC007C08A3005630FC007C0890
:10054800A4006F30FC007C08A5007530FC007C0816
:10055800A6007430FC007C08A7002F30FC007C0843
:10056800A8003430FC007C08A9002E30FC007C0870
:10057800AA003030FC007C08AB003930FC007C0855
:10058800AC003630FC007C08AD002930FC007C084B
:10059800AE008531D72580310F30FC007C08200063
:1005A800A0004330FC007C08A1007530FC007C08EA
:1005B800A2007230FC007C08A3007230FC007C08AA
:1005C800A4006530FC007C08A5006E30FC007C08A7
:1005D800A6007430FC007C08A7002030FC007C08D2
:1005E800A8005630FC007C08A9006F30FC007C088D
:1005F800AA007530FC007C08AB007430FC007C0855
:10060800AC003D30FC007C08AD005408FC007C08C0
:10061800AE005508FC007C08AF008531D725803135
:100628000E30FC007C082000A0000A30FC007C088A
:10063800A1000D30FC007C08A2005330FC007C08AF
:10064800A3004630FC007C08A4005830FC007C085D
:10065800A5003D30FC007C08A6005330FC007C0857
:10066800A7006530FC007C08A8007430FC007C08FA
:10067800A9002030FC007C08AA004630FC007C0859
:10068800AB007230FC007C08AC006530FC007C08D4
:10069800AD007130FC007C08AE008531D725803173
:1006A8000E30FC007C082000A0005830FC007C08BC
:1006B800A1002030FC007C08A2003D30FC007C0832
:1006C800A3002030FC007C08A4003130FC007C082A
:1006D800A5002D30FC007C08A6003330FC007C0807
:1006E800A7002030FC007C08A8007730FC007C08BC
:1006F800A9006830FC007C08AA006530FC007C0872
:10070800AB007230FC007C08AC006530FC007C0853
:10071800AD003A30FC007C08AE008531D725803129
:100728000830FC007C082000A0003130FC007C0868
:10073800A1002030FC007C08A2003D30FC007C08B1
:10074800A3002030FC007C08A4003130FC007C08A9
:10075800A5002030FC007C08A6004830FC007C087E
:10076800A7007A30FC007C08A8008531D7258031A5
:100778000930FC007C082000A0003230FC007C0816
:10078800A1002030FC007C08A2003D30FC007C0861
:10079800A3002030FC007C08A4003130FC007C0859
:1007A800A5003030FC007C08A6002030FC007C0846
:1007B800A7004830FC007C08A8007A30FC007C08C0
:1007C800A9008531D72580310A30FC007C0820003B
:1007D800A0003330FC007C08A1002030FC007C081D
:1007E800A2003D30FC007C08A3002030FC007C08FF
:1007F800A4003130FC007C08A5003030FC007C08E7
:10080800A6003030FC007C08A7002030FC007C08E3
:10081800A8004830FC007C08A9007A30FC007C085D
:10082800AA008531D72580310E30FC007C082000D5
:10083800A0004330FC007C08A1007530FC007C0857
:10084800A2007230FC007C08A3007230FC007C0817
:10085800A4006530FC007C08A5006E30FC007C0814
:10086800A6007430FC007C08A7002030FC007C083F
:10087800A8004630FC007C08A9007230FC007C0807
:10088800AA006530FC007C08AB007130FC007C08D5
:10089800AC003D30FC007C08AD005208303EFC0046
:1008A8007C08AE007E2C3808533A031D5C2C5D2C66
:1008B800792C3908563A031D622C632C672C863133
:1008C800822680317E2C20003908463A031D6D2C83
:1008D8006E2C722C8731152780317E2C2000D30195
:1008E8000314D30D7E2C7E2C7E2C8431C2248031BF
:1008F8007E2C7E2C8531D72580310A3023009A0042
:100908002000D601D7018D2C0130D6070030D73D05
:100918008D2C5708803AFF0083307F02031D962CE8
:10092800E83056020318992C9A2CA12C2000111E8D
:100938009E2C9F2C882CA12CA12C0D3023009A00D2
:100948002000D801D901AD2C0130D8070030D93D9D
:10095800AD2C5908803AFF0083307F02031DB62C66
:10096800E83058020318B92CBA2CC12C2000111EEB
:10097800BE2CBF2CA82CC12CC12C0800F501F401F9
:10098800F501CB2C0130F0007008F507CB2C1030A6
:1009980075020318D02CD12CDD2C7508403E86003A
:1009A8008701010820003806031DDB2CDC2CC62C2F
:1009B800DD2CF401E42C0130F0007008F407E42C7D
:1009C800103074020318E92CEA2CF72C7408403E06
:1009D80086008701010820003906031DF42CF52C38
:1009E800DF2CF72CF72C103075020318FC2CFD2C8B
:1009F8004F2D103074020318022D032D4F2DF519B9
:100A0800062D072D0C2D2000B0010314B00D0E2D5E
:100A18002000B0017519112D122D162DB1010314E6
:100A2800B10D172DB101F5181A2D1B2D1F2DB2016F
:100A38000314B20D202DB2017518232D242D282D55
:100A4800B3010314B30D292DB301F4192C2D2D2D49
:100A5800312DB4010314B40D322DB4017419352DA0
:100A6800362D3A2DB5010314B50D3B2DB501F418FB
:100A78003E2D3F2D432DB6010314B60D442DB6016E
:100A88007418472D482D4C2DB7010314B70D552D5B
:100A9800B701552D552D2000D3010314D30DD62DA4
:100AA800D62D063095000B118B166314BC01BD01C1
:100AB800F50108307502031C622D632D672DD32DB7
:100AC800D32D672D672D5108FE3EF000FF30031827
:100AD8000030F10071083D02031D742D70083C02BE
:100AE800031C772D782D672D792D7508303E8600EB
:100AF80087010118802D832D20008E14852D20005C
:100B08008E10872D872D5108F000F10171083D02E4
:100B1800031D902D70083C02031C932D942D872DE6
:100B28000E10972D972D5108F000F1010130F03586
:100B3800F10D890B9B2D71083D02031DA52D700831
:100B48003C02031CA82DA92D972D0E14AC2DAC2DFD
:100B58005108F000F1010130F035F10D890BB02D8D
:100B68007008023EF2000030713DF30073083D0248
:100B7800031DC02D72083C02031CC32DC42DAC2DCF
:100B88008E140230BC000030BD000130F000700847
:100B9800F50708307502031CD22DD32D672D8B1253
:100BA8006310D30108008B130A3023009A00F10167
:100BB800F201E32D0130F1070030F23DE32D720818
:100BC800803AFF0083307F02031DEC2DE83071026C
:100BD8000318EF2DF02DF72D2000111EF42DF52D03
:100BE800DE2DF72DF72D0D3023009A00F301F401C7
:100BF800022E0130F3070030F43D022E7408803ACB
:100C0800FF0083307F02031D0B2EE83073020318A8
:100C18000E2E0F2E162E2000111E132E142EFD2D13
:100C2800162E162E2000D308031D1B2E1C2E292E2F
:100C38000230F0007008A0004F30F0007008A100EA
:100C48004B30F0007008A200462E5308013A031DED
:100C58002E2E2F2E402E0330F0007008A0004530B5
:100C6800F0007008A1007230F0007008A200723025
:100C7800F0007008A300462E0230F0007008D30080
:100C8800462E462EF7010314F70D722E7708203EE4
:100C980086008701010823009A00F501F601592E04
:100CA8000130F5070030F63D592E7608803AFF00EE
:100CB80083307F02031D622EE83075020318652E0B
:100CC800662E6D2E2000111E6A2E6B2E542E6D2E50
:100CD8006D2E0130F0007008F707722E1030770281
:100CE8000318772E782E802E77082000200203180C
:100CF8007E2E7F2E4A2E802E8B1708002000540847
:100D0800F6007608FA005508F6007608FB003A085F
:100D1800F6007608D4003B08F6007608D50054089B
:100D2800D03EF000FF3003180030F1000A30F20026
:100D38000030F30087314C278631200055087007B2
:100D4800F60071080318710AF7007608D03EF8001B
:100D5800FF30773DF9007908803AFF0080307F0244
:100D6800031DB82E20307802031CBB2EBC2ECA2EC1
:100D78007A08F60076082000D4007B08F60076088A
:100D8800D500D3010314D30DDB2EDB2E0A30F60079
:100D98007608F00020005408D03E87318A27863133
:100DA80020005507C33E220099002000D301080007
:100DB800F03021009900803022009D0023008C0132
:100DC8000A3021008C0023008E012C3021008E0077
:100DD80020000E148E148C30220097000A30200058
:100DE800E2006208DE005408D03E87317027863161
:100DF80020005507C33E22009900E83098001930BA
:100E080023009B00B0309D0020309E009F01D03011
:100E18008B0020302100910004309500132F132FF0
:100E28009D2820005208F0007008F1003A08D03ED2
:100E3800F0007008D2005208013A031D242F252F14
:100E48002A2FF430F0007008D1004A2F5208023AD5
:100E5800031D2F2F302F352F3230F0007008D100AE
:100E68004A2F5208033A031D3A2F3B2F402F0530D3
:100E7800F0007008D1004A2F7108F0007008D20005
:100E8800D3010314D30D4B2F4B2F4A2FD301080046
:100E9800F401F5014F2F701C522F532F572F720852
:100EA800F4077308F53D0130F235F30D890B582F1F
:100EB8000130F136F00C890B5D2F71087004031DA9
:100EC800662F672F4F2F682F7508F101F1077408F7
:100ED800F001F0076F2F08002000E100E001742FF7
:100EE800611C772F782F7D2F5E08DF005F08E007F1
:100EF8007D2F0310DE0D0310E10CE108031D852F83
:100F0800862F742F872F6008892F0800F300F201BD
:100F18008D2F731C902F912F962F7008F100710858
:100F2800F207962F0310F00D0310F30CF308031DBE
:100F38009E2F9F2F8D2FA02F7208A22F0800E3014C
:100F4800203084000030850020308731D027873159
:100F5800BA30840087308500403086000030870032
:100F680016308731D62787312000DC2E30343134D3
:100F7800323433343434353436343734383439341D
:100F880041344234433444344534463400343234F2
:100F98000234023432343634640080010131890B62
:100FA800D12F0034FE0012001E00FE0BD72F003494
:020000040001F9
:02000E00E4D933
:00000001FF
